{
    "_format": "hh-sol-artifact-1",
    "contractName": "Transactions",
    "sourceName": "contracts/Transactions.sol",
    "abi": [
        {
            "anonymous": false,
            "inputs": [
                {
                    "indexed": false,
                    "internalType": "address",
                    "name": "from",
                    "type": "address"
                },
                {
                    "indexed": false,
                    "internalType": "address",
                    "name": "receiver",
                    "type": "address"
                },
                {
                    "indexed": false,
                    "internalType": "uint256",
                    "name": "amount",
                    "type": "uint256"
                },
                {
                    "indexed": false,
                    "internalType": "string",
                    "name": "message",
                    "type": "string"
                },
                {
                    "indexed": false,
                    "internalType": "uint256",
                    "name": "timestamp",
                    "type": "uint256"
                },
                {
                    "indexed": false,
                    "internalType": "string",
                    "name": "keyword",
                    "type": "string"
                }
            ],
            "name": "Transfer",
            "type": "event"
        },
        {
            "inputs": [],
            "name": "getAllTransactions",
            "outputs": [
                {
                    "components": [
                        {
                            "internalType": "address",
                            "name": "sender",
                            "type": "address"
                        },
                        {
                            "internalType": "address",
                            "name": "receiver",
                            "type": "address"
                        },
                        {
                            "internalType": "uint256",
                            "name": "amount",
                            "type": "uint256"
                        },
                        {
                            "internalType": "string",
                            "name": "message",
                            "type": "string"
                        },
                        {
                            "internalType": "uint256",
                            "name": "timestamp",
                            "type": "uint256"
                        },
                        {
                            "internalType": "string",
                            "name": "keyword",
                            "type": "string"
                        }
                    ],
                    "internalType": "struct Transactions.TransferStruct[]",
                    "name": "",
                    "type": "tuple[]"
                }
            ],
            "stateMutability": "view",
            "type": "function"
        },
        {
            "inputs": [],
            "name": "getTransactionCount",
            "outputs": [
                {
                    "internalType": "uint256",
                    "name": "",
                    "type": "uint256"
                }
            ],
            "stateMutability": "view",
            "type": "function"
        },
        {
            "inputs": [
                {
                    "internalType": "address payable",
                    "name": "receiver",
                    "type": "address"
                },
                {
                    "internalType": "uint256",
                    "name": "amount",
                    "type": "uint256"
                },
                {
                    "internalType": "string",
                    "name": "message",
                    "type": "string"
                },
                {
                    "internalType": "string",
                    "name": "keyword",
                    "type": "string"
                }
            ],
            "name": "transfer",
            "outputs": [],
            "stateMutability": "nonpayable",
            "type": "function"
        }
    ],
    "bytecode": "0x608060405234801561001057600080fd5b50610c54806100206000396000f3fe608060405234801561001057600080fd5b50600436106100415760003560e01c806327506f53146100465780632e7700f014610064578063e9c0281514610082575b600080fd5b61004e61009e565b60405161005b9190610900565b60405180910390f35b61006c6102e1565b6040516100799190610922565b60405180910390f35b61009c60048036038101906100979190610628565b6102ea565b005b60606001805480602002602001604051908101604052809291908181526020016000905b828210156102d857838290600052602060002090600602016040518060c00160405290816000820160009054906101000a900473ffffffffffffffffffffffffffffffffffffffff1673ffffffffffffffffffffffffffffffffffffffff1673ffffffffffffffffffffffffffffffffffffffff1681526020016001820160009054906101000a900473ffffffffffffffffffffffffffffffffffffffff1673ffffffffffffffffffffffffffffffffffffffff1673ffffffffffffffffffffffffffffffffffffffff168152602001600282015481526020016003820180546101ab90610b20565b80601f01602080910402602001604051908101604052809291908181526020018280546101d790610b20565b80156102245780601f106101f957610100808354040283529160200191610224565b820191906000526020600020905b81548152906001019060200180831161020757829003601f168201915b505050505081526020016004820154815260200160058201805461024790610b20565b80601f016020809104026020016040519081016040528092919081815260200182805461027390610b20565b80156102c05780601f10610295576101008083540402835291602001916102c0565b820191906000526020600020905b8154815290600101906020018083116102a357829003601f168201915b505050505081525050815260200190600101906100c2565b50505050905090565b60008054905090565b60016000808282546102fc9190610a04565b9250508190555060016040518060c001604052803373ffffffffffffffffffffffffffffffffffffffff1681526020018673ffffffffffffffffffffffffffffffffffffffff16815260200185815260200184815260200142815260200183815250908060018154018082558091505060019003906000526020600020906006020160009091909190915060008201518160000160006101000a81548173ffffffffffffffffffffffffffffffffffffffff021916908373ffffffffffffffffffffffffffffffffffffffff16021790555060208201518160010160006101000a81548173ffffffffffffffffffffffffffffffffffffffff021916908373ffffffffffffffffffffffffffffffffffffffff16021790555060408201518160020155606082015181600301908051906020019061043b9291906104f3565b506080820151816004015560a08201518160050190805190602001906104629291906104f3565b5050507f416cfa4330a4565f45c2fd2dd4826a83a37443aba2ce6f79477c7355afac35fa33858585428660405161049e96959493929190610891565b60405180910390a18373ffffffffffffffffffffffffffffffffffffffff166108fc849081150290604051600060405180830381858888f193505050501580156104ec573d6000803e3d6000fd5b5050505050565b8280546104ff90610b20565b90600052602060002090601f0160209004810192826105215760008555610568565b82601f1061053a57805160ff1916838001178555610568565b82800160010185558215610568579182015b8281111561056757825182559160200191906001019061054c565b5b5090506105759190610579565b5090565b5b8082111561059257600081600090555060010161057a565b5090565b60006105a96105a48461096e565b61093d565b9050828152602081018484840111156105c157600080fd5b6105cc848285610ade565b509392505050565b6000813590506105e381610bf0565b92915050565b600082601f8301126105fa57600080fd5b813561060a848260208601610596565b91505092915050565b60008135905061062281610c07565b92915050565b6000806000806080858703121561063e57600080fd5b600061064c878288016105d4565b945050602061065d87828801610613565b935050604085013567ffffffffffffffff81111561067a57600080fd5b610686878288016105e9565b925050606085013567ffffffffffffffff8111156106a357600080fd5b6106af878288016105e9565b91505092959194509250565b60006106c783836107e3565b905092915050565b6106d881610aa8565b82525050565b6106e781610a5a565b82525050565b6106f681610a5a565b82525050565b6000610707826109ae565b61071181856109d1565b9350836020820285016107238561099e565b8060005b8581101561075f578484038952815161074085826106bb565b945061074b836109c4565b925060208a01995050600181019050610727565b50829750879550505050505092915050565b600061077c826109b9565b61078681856109e2565b9350610796818560208601610aed565b61079f81610bdf565b840191505092915050565b60006107b5826109b9565b6107bf81856109f3565b93506107cf818560208601610aed565b6107d881610bdf565b840191505092915050565b600060c0830160008301516107fb60008601826106de565b50602083015161080e60208601826106de565b5060408301516108216040860182610873565b50606083015184820360608601526108398282610771565b915050608083015161084e6080860182610873565b5060a083015184820360a08601526108668282610771565b9150508091505092915050565b61087c81610a9e565b82525050565b61088b81610a9e565b82525050565b600060c0820190506108a660008301896106ed565b6108b360208301886106cf565b6108c06040830187610882565b81810360608301526108d281866107aa565b90506108e16080830185610882565b81810360a08301526108f381846107aa565b9050979650505050505050565b6000602082019050818103600083015261091a81846106fc565b905092915050565b60006020820190506109376000830184610882565b92915050565b6000604051905081810181811067ffffffffffffffff8211171561096457610963610bb0565b5b8060405250919050565b600067ffffffffffffffff82111561098957610988610bb0565b5b601f19601f8301169050602081019050919050565b6000819050602082019050919050565b600081519050919050565b600081519050919050565b6000602082019050919050565b600082825260208201905092915050565b600082825260208201905092915050565b600082825260208201905092915050565b6000610a0f82610a9e565b9150610a1a83610a9e565b9250827fffffffffffffffffffffffffffffffffffffffffffffffffffffffffffffffff03821115610a4f57610a4e610b52565b5b828201905092915050565b6000610a6582610a7e565b9050919050565b6000610a7782610a7e565b9050919050565b600073ffffffffffffffffffffffffffffffffffffffff82169050919050565b6000819050919050565b6000610ab382610aba565b9050919050565b6000610ac582610acc565b9050919050565b6000610ad782610a7e565b9050919050565b82818337600083830152505050565b60005b83811015610b0b578082015181840152602081019050610af0565b83811115610b1a576000848401525b50505050565b60006002820490506001821680610b3857607f821691505b60208210811415610b4c57610b4b610b81565b5b50919050565b7f4e487b7100000000000000000000000000000000000000000000000000000000600052601160045260246000fd5b7f4e487b7100000000000000000000000000000000000000000000000000000000600052602260045260246000fd5b7f4e487b7100000000000000000000000000000000000000000000000000000000600052604160045260246000fd5b6000601f19601f8301169050919050565b610bf981610a6c565b8114610c0457600080fd5b50565b610c1081610a9e565b8114610c1b57600080fd5b5056fea264697066735822122087a6b198344075dd4dfcd069a061466ad984deaf64b63ac0df5bd03053ca6c8e64736f6c63430008000033",
    "linkReferences": {},
    "deployedLinkReferences": {}
}